{
  "_format": "hh-sol-artifact-1",
  "contractName": "MysteryCardsManager",
  "sourceName": "contracts/MysteryCardsManager.sol",
  "abi": [
    {
      "anonymous": false,
      "inputs": [
        {
          "indexed": false,
          "internalType": "uint8",
          "name": "version",
          "type": "uint8"
        }
      ],
      "name": "Initialized",
      "type": "event"
    },
    {
      "anonymous": false,
      "inputs": [
        {
          "indexed": true,
          "internalType": "address",
          "name": "user",
          "type": "address"
        },
        {
          "indexed": false,
          "internalType": "uint256",
          "name": "amount",
          "type": "uint256"
        },
        {
          "indexed": false,
          "internalType": "uint256",
          "name": "burnNonce",
          "type": "uint256"
        },
        {
          "indexed": false,
          "internalType": "uint256",
          "name": "mintNonce",
          "type": "uint256"
        }
      ],
      "name": "NewBurn",
      "type": "event"
    },
    {
      "anonymous": false,
      "inputs": [
        {
          "indexed": true,
          "internalType": "address",
          "name": "user",
          "type": "address"
        },
        {
          "indexed": false,
          "internalType": "uint256",
          "name": "amount",
          "type": "uint256"
        }
      ],
      "name": "NewBuy",
      "type": "event"
    },
    {
      "anonymous": false,
      "inputs": [
        {
          "indexed": true,
          "internalType": "address",
          "name": "user",
          "type": "address"
        },
        {
          "indexed": false,
          "internalType": "uint256",
          "name": "amount",
          "type": "uint256"
        },
        {
          "indexed": false,
          "internalType": "uint256",
          "name": "burnNonce",
          "type": "uint256"
        },
        {
          "indexed": false,
          "internalType": "uint256",
          "name": "mintNonce",
          "type": "uint256"
        }
      ],
      "name": "NewReveal",
      "type": "event"
    },
    {
      "anonymous": false,
      "inputs": [
        {
          "indexed": true,
          "internalType": "address",
          "name": "previousOwner",
          "type": "address"
        },
        {
          "indexed": true,
          "internalType": "address",
          "name": "newOwner",
          "type": "address"
        }
      ],
      "name": "OwnershipTransferred",
      "type": "event"
    },
    {
      "inputs": [
        {
          "internalType": "uint256",
          "name": "amount",
          "type": "uint256"
        }
      ],
      "name": "burnMysteryCard",
      "outputs": [],
      "stateMutability": "nonpayable",
      "type": "function"
    },
    {
      "inputs": [
        {
          "internalType": "uint256",
          "name": "amount",
          "type": "uint256"
        }
      ],
      "name": "buyMysteryCards",
      "outputs": [],
      "stateMutability": "nonpayable",
      "type": "function"
    },
    {
      "inputs": [],
      "name": "essenceContract",
      "outputs": [
        {
          "internalType": "contract IRektSkullsEssence",
          "name": "",
          "type": "address"
        }
      ],
      "stateMutability": "view",
      "type": "function"
    },
    {
      "inputs": [
        {
          "internalType": "contract IRektToken",
          "name": "_rektToken",
          "type": "address"
        },
        {
          "internalType": "contract IRektSkullsEssence",
          "name": "_essencesContract",
          "type": "address"
        }
      ],
      "name": "initialize",
      "outputs": [],
      "stateMutability": "nonpayable",
      "type": "function"
    },
    {
      "inputs": [
        {
          "internalType": "address",
          "name": "",
          "type": "address"
        },
        {
          "internalType": "address",
          "name": "",
          "type": "address"
        },
        {
          "internalType": "uint256[]",
          "name": "",
          "type": "uint256[]"
        },
        {
          "internalType": "uint256[]",
          "name": "",
          "type": "uint256[]"
        },
        {
          "internalType": "bytes",
          "name": "",
          "type": "bytes"
        }
      ],
      "name": "onERC1155BatchReceived",
      "outputs": [
        {
          "internalType": "bytes4",
          "name": "",
          "type": "bytes4"
        }
      ],
      "stateMutability": "nonpayable",
      "type": "function"
    },
    {
      "inputs": [
        {
          "internalType": "address",
          "name": "",
          "type": "address"
        },
        {
          "internalType": "address",
          "name": "",
          "type": "address"
        },
        {
          "internalType": "uint256",
          "name": "",
          "type": "uint256"
        },
        {
          "internalType": "uint256",
          "name": "",
          "type": "uint256"
        },
        {
          "internalType": "bytes",
          "name": "",
          "type": "bytes"
        }
      ],
      "name": "onERC1155Received",
      "outputs": [
        {
          "internalType": "bytes4",
          "name": "",
          "type": "bytes4"
        }
      ],
      "stateMutability": "nonpayable",
      "type": "function"
    },
    {
      "inputs": [],
      "name": "owner",
      "outputs": [
        {
          "internalType": "address",
          "name": "",
          "type": "address"
        }
      ],
      "stateMutability": "view",
      "type": "function"
    },
    {
      "inputs": [],
      "name": "pendingMint",
      "outputs": [
        {
          "internalType": "uint256",
          "name": "",
          "type": "uint256"
        }
      ],
      "stateMutability": "view",
      "type": "function"
    },
    {
      "inputs": [],
      "name": "price",
      "outputs": [
        {
          "internalType": "uint256",
          "name": "",
          "type": "uint256"
        }
      ],
      "stateMutability": "view",
      "type": "function"
    },
    {
      "inputs": [],
      "name": "rektToken",
      "outputs": [
        {
          "internalType": "contract IRektToken",
          "name": "",
          "type": "address"
        }
      ],
      "stateMutability": "view",
      "type": "function"
    },
    {
      "inputs": [],
      "name": "renounceOwnership",
      "outputs": [],
      "stateMutability": "nonpayable",
      "type": "function"
    },
    {
      "inputs": [
        {
          "internalType": "uint256[]",
          "name": "ids",
          "type": "uint256[]"
        },
        {
          "internalType": "uint256[]",
          "name": "amounts",
          "type": "uint256[]"
        },
        {
          "internalType": "uint256",
          "name": "nonce",
          "type": "uint256"
        },
        {
          "internalType": "bytes",
          "name": "signature",
          "type": "bytes"
        }
      ],
      "name": "reveal",
      "outputs": [],
      "stateMutability": "nonpayable",
      "type": "function"
    },
    {
      "inputs": [
        {
          "internalType": "address",
          "name": "_signer",
          "type": "address"
        }
      ],
      "name": "setSigner",
      "outputs": [],
      "stateMutability": "nonpayable",
      "type": "function"
    },
    {
      "inputs": [],
      "name": "signer",
      "outputs": [
        {
          "internalType": "address",
          "name": "",
          "type": "address"
        }
      ],
      "stateMutability": "view",
      "type": "function"
    },
    {
      "inputs": [
        {
          "internalType": "bytes4",
          "name": "interfaceId",
          "type": "bytes4"
        }
      ],
      "name": "supportsInterface",
      "outputs": [
        {
          "internalType": "bool",
          "name": "",
          "type": "bool"
        }
      ],
      "stateMutability": "view",
      "type": "function"
    },
    {
      "inputs": [
        {
          "internalType": "address",
          "name": "newOwner",
          "type": "address"
        }
      ],
      "name": "transferOwnership",
      "outputs": [],
      "stateMutability": "nonpayable",
      "type": "function"
    },
    {
      "inputs": [
        {
          "internalType": "address",
          "name": "",
          "type": "address"
        }
      ],
      "name": "users",
      "outputs": [
        {
          "internalType": "uint256",
          "name": "burnNonce",
          "type": "uint256"
        },
        {
          "internalType": "uint256",
          "name": "mintNonce",
          "type": "uint256"
        }
      ],
      "stateMutability": "view",
      "type": "function"
    }
  ],
  "bytecode": "0x608060405234801561001057600080fd5b50611722806100206000396000f3fe608060405234801561001057600080fd5b506004361061010b5760003560e01c8063a035b1fe116100a2578063c85c353d11610071578063c85c353d1461026d578063ddf6a8c514610280578063e114482c14610293578063f23a6e611461029d578063f2fde38b146102bc57600080fd5b8063a035b1fe146101cc578063a87430ba146101e4578063b2e82f3614610221578063bc197c811461023557600080fd5b80636c19e783116100de5780636c19e7831461018c578063715018a61461019f5780638c5e1364146101a75780638da5cb5b146101bb57600080fd5b806301ffc9a714610110578063238ac93314610138578063485cc9551461016457806361d33b1514610179575b600080fd5b61012361011e366004611197565b6102cf565b60405190151581526020015b60405180910390f35b6101345461014c906001600160a01b031681565b6040516001600160a01b03909116815260200161012f565b6101776101723660046111dd565b610306565b005b61017761018736600461134d565b6104af565b61017761019a3660046113df565b6108a5565b6101776108d0565b6101305461014c906001600160a01b031681565b6033546001600160a01b031661014c565b6101d66101315481565b60405190815260200161012f565b61020c6101f23660046113df565b610133602052600090815260409020805460019091015482565b6040805192835260208301919091520161012f565b61012f5461014c906001600160a01b031681565b6102546102433660046113fc565b63bc197c8160e01b95945050505050565b6040516001600160e01b0319909116815260200161012f565b61017761027b3660046114aa565b6108e4565b61017761028e3660046114aa565b610b64565b6101d66101325481565b6102546102ab3660046114c3565b63f23a6e6160e01b95945050505050565b6101776102ca3660046113df565b610c53565b60006001600160e01b03198216630271189760e51b148061030057506301ffc9a760e01b6001600160e01b03198316145b92915050565b600054610100900460ff16158080156103265750600054600160ff909116105b806103405750303b158015610340575060005460ff166001145b6103a85760405162461bcd60e51b815260206004820152602e60248201527f496e697469616c697a61626c653a20636f6e747261637420697320616c72656160448201526d191e481a5b9a5d1a585b1a5e995960921b60648201526084015b60405180910390fd5b6000805460ff1916600117905580156103cb576000805461ff0019166101001790555b6103d3610ccc565b6104236040518060400160405280601381526020017226bcb9ba32b93ca1b0b93239a6b0b730b3b2b960691b815250604051806040016040528060038152602001620312e360ec1b815250610cfb565b69021e19e0c9bab24000006101315561012f80546001600160a01b038086166001600160a01b03199283161790925561013080549285169290911691909117905580156104aa576000805461ff0019169055604051600181527f7f26b83ff96e1f2b6a682f133852f6798a09c465da95921460cefb38474024989060200160405180910390a15b505050565b33600090815261013360205260409020805483146104f95760405162461bcd60e51b81526020600482015260076024820152664e43414e54485360c81b604482015260640161039f565b60018101548154116105365760405162461bcd60e51b815260040161039f906020808252600490820152634e54464d60e01b604082015260600190565b60007f2f5c6a581e818783f15e5f1f489b9c4e08c6ab3841f0550186773909577920b18660405160200161056a919061152c565b6040516020818303038152906040528051906020012086604051602001610591919061152c565b60408051601f198184030181528282528051602091820120908301949094528101919091526060810191909152608081018590523360a082015260c00160408051601f198184030181529190528051602090910120610134549091506001600160a01b03166106098461060384610d30565b90610d7e565b6001600160a01b0316146106475760405162461bcd60e51b8152602060048201526005602482015264424453494760d81b604482015260640161039f565b60008651116106845760405162461bcd60e51b8152602060048201526009602482015268262723a429a1212a2d60b91b604482015260640161039f565b84518651146106bf5760405162461bcd60e51b81526020600482015260076024820152664c4e474841545360c81b604482015260640161039f565b6000805b875181101561077d578681815181106106de576106de611562565b6020026020010151826106f1919061158e565b9150600188828151811061070757610707611562565b6020026020010151101580156107375750600488828151811061072c5761072c611562565b602002602001015111155b61076b5760405162461bcd60e51b8152602060048201526005602482015264125390d25160da1b604482015260640161039f565b80610775816115a6565b9150506106c3565b5080610132600082825461079191906115c1565b92505081905550808360010160008282546107ac919061158e565b909155505082546001840154146107ed5760405162461bcd60e51b81526020600482015260056024820152644f56524c4d60d81b604482015260640161039f565b610130546040516302743a8560e41b81526001600160a01b0390911690632743a850906108229033908b908b90600401611613565b600060405180830381600087803b15801561083c57600080fd5b505af1158015610850573d6000803e3d6000fd5b5050845460018601546040805186815260208101939093528201523392507f3818f66a5ab33ff21f41bc1b778ad6b60a75394ee5ed0c2ee17cc3e6674c5b47915060600160405180910390a250505050505050565b6108ad610da2565b61013480546001600160a01b0319166001600160a01b0392909216919091179055565b6108d8610da2565b6108e26000610dfc565b565b612710610132548261013060009054906101000a90046001600160a01b03166001600160a01b031663490c06c16040518163ffffffff1660e01b8152600401602060405180830381865afa158015610940573d6000803e3d6000fd5b505050506040513d601f19601f820116820180604052508101906109649190611653565b61096e919061158e565b610978919061158e565b111561098357600080fd5b60006101315482610994919061166c565b61012f546040516323b872dd60e01b8152336004820152306024820152604481018390529192506001600160a01b0316906323b872dd90606401600060405180830381600087803b1580156109e857600080fd5b505af11580156109fc573d6000803e3d6000fd5b505061012f546040516370a0823160e01b81523060048201526001600160a01b0390911692506342966c68915082906370a0823190602401602060405180830381865afa158015610a51573d6000803e3d6000fd5b505050506040513d601f19601f82011682018060405250810190610a759190611653565b6040518263ffffffff1660e01b8152600401610a9391815260200190565b600060405180830381600087803b158015610aad57600080fd5b505af1158015610ac1573d6000803e3d6000fd5b5050610130546040516352bd27b560e11b8152336004820152602481018690526001600160a01b03909116925063a57a4f6a9150604401600060405180830381600087803b158015610b1257600080fd5b505af1158015610b26573d6000803e3d6000fd5b50506040518481523392507f658c8a01adb50db1fdb7c7de38e059068e0896828edeeb6992b9e38027ff083191506020015b60405180910390a25050565b336000818152610133602052604090819020610130549151632fc6ca3760e21b8152600481019390935260248301849052916001600160a01b039091169063bf1b28dc90604401600060405180830381600087803b158015610bc557600080fd5b505af1158015610bd9573d6000803e3d6000fd5b50505050816101326000828254610bf0919061158e565b9091555050805482908290600090610c0990849061158e565b90915550508054600182015460408051858152602081019390935282015233907f2475d019909f8c13dad0949cd7a99e3d28852bd02a49f63f5890eff84157791490606001610b58565b610c5b610da2565b6001600160a01b038116610cc05760405162461bcd60e51b815260206004820152602660248201527f4f776e61626c653a206e6577206f776e657220697320746865207a65726f206160448201526564647265737360d01b606482015260840161039f565b610cc981610dfc565b50565b600054610100900460ff16610cf35760405162461bcd60e51b815260040161039f9061168b565b6108e2610e4e565b600054610100900460ff16610d225760405162461bcd60e51b815260040161039f9061168b565b610d2c8282610e7e565b5050565b6000610300610d3d610ebf565b8360405161190160f01b6020820152602281018390526042810182905260009060620160405160208183030381529060405280519060200120905092915050565b6000806000610d8d8585610f3f565b91509150610d9a81610f85565b509392505050565b6033546001600160a01b031633146108e25760405162461bcd60e51b815260206004820181905260248201527f4f776e61626c653a2063616c6c6572206973206e6f7420746865206f776e6572604482015260640161039f565b603380546001600160a01b038381166001600160a01b0319831681179093556040519116919082907f8be0079c531659141344cd1fd0a4f28419497f9722a3daafe3b4186f6b6457e090600090a35050565b600054610100900460ff16610e755760405162461bcd60e51b815260040161039f9061168b565b6108e233610dfc565b600054610100900460ff16610ea55760405162461bcd60e51b815260040161039f9061168b565b81516020928301208151919092012060fb9190915560fc55565b6000610f3a7f8b73c3c69bb8fe3d512ecc4cf759cc79239f7b179b0ffacaa9a75d522b39400f610eee60fb5490565b60fc546040805160208101859052908101839052606081018290524660808201523060a082015260009060c0016040516020818303038152906040528051906020012090509392505050565b905090565b600080825160411415610f765760208301516040840151606085015160001a610f6a878285856110d3565b94509450505050610f7e565b506000905060025b9250929050565b6000816004811115610f9957610f996116d6565b1415610fa25750565b6001816004811115610fb657610fb66116d6565b14156110045760405162461bcd60e51b815260206004820152601860248201527f45434453413a20696e76616c6964207369676e61747572650000000000000000604482015260640161039f565b6002816004811115611018576110186116d6565b14156110665760405162461bcd60e51b815260206004820152601f60248201527f45434453413a20696e76616c6964207369676e6174757265206c656e67746800604482015260640161039f565b600381600481111561107a5761107a6116d6565b1415610cc95760405162461bcd60e51b815260206004820152602260248201527f45434453413a20696e76616c6964207369676e6174757265202773272076616c604482015261756560f01b606482015260840161039f565b6000807f7fffffffffffffffffffffffffffffff5d576e7357a4501ddfe92f46681b20a083111561110a575060009050600361118e565b6040805160008082526020820180845289905260ff881692820192909252606081018690526080810185905260019060a0016020604051602081039080840390855afa15801561115e573d6000803e3d6000fd5b5050604051601f1901519150506001600160a01b0381166111875760006001925092505061118e565b9150600090505b94509492505050565b6000602082840312156111a957600080fd5b81356001600160e01b0319811681146111c157600080fd5b9392505050565b6001600160a01b0381168114610cc957600080fd5b600080604083850312156111f057600080fd5b82356111fb816111c8565b9150602083013561120b816111c8565b809150509250929050565b634e487b7160e01b600052604160045260246000fd5b604051601f8201601f1916810167ffffffffffffffff8111828210171561125557611255611216565b604052919050565b600082601f83011261126e57600080fd5b8135602067ffffffffffffffff82111561128a5761128a611216565b8160051b61129982820161122c565b92835284810182019282810190878511156112b357600080fd5b83870192505b848310156112d2578235825291830191908301906112b9565b979650505050505050565b600082601f8301126112ee57600080fd5b813567ffffffffffffffff81111561130857611308611216565b61131b601f8201601f191660200161122c565b81815284602083860101111561133057600080fd5b816020850160208301376000918101602001919091529392505050565b6000806000806080858703121561136357600080fd5b843567ffffffffffffffff8082111561137b57600080fd5b6113878883890161125d565b9550602087013591508082111561139d57600080fd5b6113a98883890161125d565b94506040870135935060608701359150808211156113c657600080fd5b506113d3878288016112dd565b91505092959194509250565b6000602082840312156113f157600080fd5b81356111c1816111c8565b600080600080600060a0868803121561141457600080fd5b853561141f816111c8565b9450602086013561142f816111c8565b9350604086013567ffffffffffffffff8082111561144c57600080fd5b61145889838a0161125d565b9450606088013591508082111561146e57600080fd5b61147a89838a0161125d565b9350608088013591508082111561149057600080fd5b5061149d888289016112dd565b9150509295509295909350565b6000602082840312156114bc57600080fd5b5035919050565b600080600080600060a086880312156114db57600080fd5b85356114e6816111c8565b945060208601356114f6816111c8565b93506040860135925060608601359150608086013567ffffffffffffffff81111561152057600080fd5b61149d888289016112dd565b815160009082906020808601845b838110156115565781518552938201939082019060010161153a565b50929695505050505050565b634e487b7160e01b600052603260045260246000fd5b634e487b7160e01b600052601160045260246000fd5b600082198211156115a1576115a1611578565b500190565b60006000198214156115ba576115ba611578565b5060010190565b6000828210156115d3576115d3611578565b500390565b600081518084526020808501945080840160005b83811015611608578151875295820195908201906001016115ec565b509495945050505050565b6001600160a01b0384168152606060208201819052600090611637908301856115d8565b828103604084015261164981856115d8565b9695505050505050565b60006020828403121561166557600080fd5b5051919050565b600081600019048311821515161561168657611686611578565b500290565b6020808252602b908201527f496e697469616c697a61626c653a20636f6e7472616374206973206e6f74206960408201526a6e697469616c697a696e6760a81b606082015260800190565b634e487b7160e01b600052602160045260246000fdfea26469706673582212209ed4f9842898b7599f46a83c973866ec50da782a2691cd23de72bf23f12f328d64736f6c634300080c0033",
  "linkReferences": {},
  "deployedLinkReferences": {}
}