{
  "_format": "hh-sol-artifact-1",
  "contractName": "RektSkullsEssence",
  "sourceName": "contracts/RektSkullsEssence.sol",
  "abi": [
    {
      "anonymous": false,
      "inputs": [
        {
          "indexed": true,
          "internalType": "address",
          "name": "account",
          "type": "address"
        },
        {
          "indexed": true,
          "internalType": "address",
          "name": "operator",
          "type": "address"
        },
        {
          "indexed": false,
          "internalType": "bool",
          "name": "approved",
          "type": "bool"
        }
      ],
      "name": "ApprovalForAll",
      "type": "event"
    },
    {
      "anonymous": false,
      "inputs": [
        {
          "indexed": true,
          "internalType": "address",
          "name": "user",
          "type": "address"
        },
        {
          "indexed": true,
          "internalType": "uint256",
          "name": "id",
          "type": "uint256"
        },
        {
          "indexed": false,
          "internalType": "uint256",
          "name": "amount",
          "type": "uint256"
        }
      ],
      "name": "Burn",
      "type": "event"
    },
    {
      "anonymous": false,
      "inputs": [
        {
          "indexed": false,
          "internalType": "uint8",
          "name": "version",
          "type": "uint8"
        }
      ],
      "name": "Initialized",
      "type": "event"
    },
    {
      "anonymous": false,
      "inputs": [
        {
          "indexed": true,
          "internalType": "address",
          "name": "user",
          "type": "address"
        },
        {
          "indexed": true,
          "internalType": "uint256",
          "name": "id",
          "type": "uint256"
        },
        {
          "indexed": false,
          "internalType": "uint256",
          "name": "amount",
          "type": "uint256"
        }
      ],
      "name": "Mint",
      "type": "event"
    },
    {
      "anonymous": false,
      "inputs": [
        {
          "indexed": true,
          "internalType": "address",
          "name": "user",
          "type": "address"
        },
        {
          "indexed": false,
          "internalType": "uint256[]",
          "name": "ids",
          "type": "uint256[]"
        },
        {
          "indexed": false,
          "internalType": "uint256[]",
          "name": "amounts",
          "type": "uint256[]"
        }
      ],
      "name": "MintBatch",
      "type": "event"
    },
    {
      "anonymous": false,
      "inputs": [
        {
          "indexed": true,
          "internalType": "address",
          "name": "previousOwner",
          "type": "address"
        },
        {
          "indexed": true,
          "internalType": "address",
          "name": "newOwner",
          "type": "address"
        }
      ],
      "name": "OwnershipTransferred",
      "type": "event"
    },
    {
      "anonymous": false,
      "inputs": [
        {
          "indexed": true,
          "internalType": "address",
          "name": "operator",
          "type": "address"
        },
        {
          "indexed": true,
          "internalType": "address",
          "name": "from",
          "type": "address"
        },
        {
          "indexed": true,
          "internalType": "address",
          "name": "to",
          "type": "address"
        },
        {
          "indexed": false,
          "internalType": "uint256[]",
          "name": "ids",
          "type": "uint256[]"
        },
        {
          "indexed": false,
          "internalType": "uint256[]",
          "name": "values",
          "type": "uint256[]"
        }
      ],
      "name": "TransferBatch",
      "type": "event"
    },
    {
      "anonymous": false,
      "inputs": [
        {
          "indexed": true,
          "internalType": "address",
          "name": "operator",
          "type": "address"
        },
        {
          "indexed": true,
          "internalType": "address",
          "name": "from",
          "type": "address"
        },
        {
          "indexed": true,
          "internalType": "address",
          "name": "to",
          "type": "address"
        },
        {
          "indexed": false,
          "internalType": "uint256",
          "name": "id",
          "type": "uint256"
        },
        {
          "indexed": false,
          "internalType": "uint256",
          "name": "value",
          "type": "uint256"
        }
      ],
      "name": "TransferSingle",
      "type": "event"
    },
    {
      "anonymous": false,
      "inputs": [
        {
          "indexed": false,
          "internalType": "string",
          "name": "value",
          "type": "string"
        },
        {
          "indexed": true,
          "internalType": "uint256",
          "name": "id",
          "type": "uint256"
        }
      ],
      "name": "URI",
      "type": "event"
    },
    {
      "inputs": [],
      "name": "MAX_NFT",
      "outputs": [
        {
          "internalType": "uint256",
          "name": "",
          "type": "uint256"
        }
      ],
      "stateMutability": "view",
      "type": "function"
    },
    {
      "inputs": [],
      "name": "WL_TOTAL_NFT",
      "outputs": [
        {
          "internalType": "uint256",
          "name": "",
          "type": "uint256"
        }
      ],
      "stateMutability": "view",
      "type": "function"
    },
    {
      "inputs": [
        {
          "internalType": "address",
          "name": "account",
          "type": "address"
        },
        {
          "internalType": "uint256",
          "name": "id",
          "type": "uint256"
        }
      ],
      "name": "balanceOf",
      "outputs": [
        {
          "internalType": "uint256",
          "name": "",
          "type": "uint256"
        }
      ],
      "stateMutability": "view",
      "type": "function"
    },
    {
      "inputs": [
        {
          "internalType": "address[]",
          "name": "accounts",
          "type": "address[]"
        },
        {
          "internalType": "uint256[]",
          "name": "ids",
          "type": "uint256[]"
        }
      ],
      "name": "balanceOfBatch",
      "outputs": [
        {
          "internalType": "uint256[]",
          "name": "",
          "type": "uint256[]"
        }
      ],
      "stateMutability": "view",
      "type": "function"
    },
    {
      "inputs": [
        {
          "internalType": "uint256",
          "name": "id",
          "type": "uint256"
        },
        {
          "internalType": "uint256",
          "name": "amount",
          "type": "uint256"
        }
      ],
      "name": "burn",
      "outputs": [],
      "stateMutability": "nonpayable",
      "type": "function"
    },
    {
      "inputs": [
        {
          "internalType": "address",
          "name": "user",
          "type": "address"
        },
        {
          "internalType": "uint256",
          "name": "amount",
          "type": "uint256"
        }
      ],
      "name": "burnMystery",
      "outputs": [],
      "stateMutability": "nonpayable",
      "type": "function"
    },
    {
      "inputs": [
        {
          "internalType": "bool",
          "name": "active",
          "type": "bool"
        }
      ],
      "name": "changeWlStatus",
      "outputs": [],
      "stateMutability": "nonpayable",
      "type": "function"
    },
    {
      "inputs": [],
      "name": "contractURI",
      "outputs": [
        {
          "internalType": "string",
          "name": "",
          "type": "string"
        }
      ],
      "stateMutability": "view",
      "type": "function"
    },
    {
      "inputs": [],
      "name": "initialize",
      "outputs": [],
      "stateMutability": "nonpayable",
      "type": "function"
    },
    {
      "inputs": [
        {
          "internalType": "address",
          "name": "account",
          "type": "address"
        },
        {
          "internalType": "address",
          "name": "operator",
          "type": "address"
        }
      ],
      "name": "isApprovedForAll",
      "outputs": [
        {
          "internalType": "bool",
          "name": "",
          "type": "bool"
        }
      ],
      "stateMutability": "view",
      "type": "function"
    },
    {
      "inputs": [],
      "name": "mintDev",
      "outputs": [],
      "stateMutability": "nonpayable",
      "type": "function"
    },
    {
      "inputs": [
        {
          "internalType": "address",
          "name": "receiver",
          "type": "address"
        },
        {
          "internalType": "uint256[]",
          "name": "ids",
          "type": "uint256[]"
        },
        {
          "internalType": "uint256[]",
          "name": "amounts",
          "type": "uint256[]"
        }
      ],
      "name": "mintEssences",
      "outputs": [],
      "stateMutability": "nonpayable",
      "type": "function"
    },
    {
      "inputs": [
        {
          "internalType": "address",
          "name": "receiver",
          "type": "address"
        },
        {
          "internalType": "uint256",
          "name": "amount",
          "type": "uint256"
        }
      ],
      "name": "mintMystery",
      "outputs": [],
      "stateMutability": "nonpayable",
      "type": "function"
    },
    {
      "inputs": [
        {
          "internalType": "address",
          "name": "",
          "type": "address"
        }
      ],
      "name": "mintNonce",
      "outputs": [
        {
          "internalType": "uint256",
          "name": "",
          "type": "uint256"
        }
      ],
      "stateMutability": "view",
      "type": "function"
    },
    {
      "inputs": [
        {
          "internalType": "uint256",
          "name": "id",
          "type": "uint256"
        },
        {
          "internalType": "uint256",
          "name": "nonce",
          "type": "uint256"
        },
        {
          "internalType": "bytes",
          "name": "sig",
          "type": "bytes"
        }
      ],
      "name": "mintWLWithSignature",
      "outputs": [],
      "stateMutability": "nonpayable",
      "type": "function"
    },
    {
      "inputs": [],
      "name": "mysteryCardsManager",
      "outputs": [
        {
          "internalType": "address",
          "name": "",
          "type": "address"
        }
      ],
      "stateMutability": "view",
      "type": "function"
    },
    {
      "inputs": [],
      "name": "name",
      "outputs": [
        {
          "internalType": "string",
          "name": "",
          "type": "string"
        }
      ],
      "stateMutability": "view",
      "type": "function"
    },
    {
      "inputs": [],
      "name": "owner",
      "outputs": [
        {
          "internalType": "address",
          "name": "",
          "type": "address"
        }
      ],
      "stateMutability": "view",
      "type": "function"
    },
    {
      "inputs": [],
      "name": "renounceOwnership",
      "outputs": [],
      "stateMutability": "nonpayable",
      "type": "function"
    },
    {
      "inputs": [
        {
          "internalType": "uint256",
          "name": "_tokenId",
          "type": "uint256"
        },
        {
          "internalType": "uint256",
          "name": "_salePrice",
          "type": "uint256"
        }
      ],
      "name": "royaltyInfo",
      "outputs": [
        {
          "internalType": "address",
          "name": "",
          "type": "address"
        },
        {
          "internalType": "uint256",
          "name": "",
          "type": "uint256"
        }
      ],
      "stateMutability": "view",
      "type": "function"
    },
    {
      "inputs": [
        {
          "internalType": "address",
          "name": "from",
          "type": "address"
        },
        {
          "internalType": "address",
          "name": "to",
          "type": "address"
        },
        {
          "internalType": "uint256[]",
          "name": "ids",
          "type": "uint256[]"
        },
        {
          "internalType": "uint256[]",
          "name": "amounts",
          "type": "uint256[]"
        },
        {
          "internalType": "bytes",
          "name": "data",
          "type": "bytes"
        }
      ],
      "name": "safeBatchTransferFrom",
      "outputs": [],
      "stateMutability": "nonpayable",
      "type": "function"
    },
    {
      "inputs": [
        {
          "internalType": "address",
          "name": "from",
          "type": "address"
        },
        {
          "internalType": "address",
          "name": "to",
          "type": "address"
        },
        {
          "internalType": "uint256",
          "name": "id",
          "type": "uint256"
        },
        {
          "internalType": "uint256",
          "name": "amount",
          "type": "uint256"
        },
        {
          "internalType": "bytes",
          "name": "data",
          "type": "bytes"
        }
      ],
      "name": "safeTransferFrom",
      "outputs": [],
      "stateMutability": "nonpayable",
      "type": "function"
    },
    {
      "inputs": [
        {
          "internalType": "address",
          "name": "operator",
          "type": "address"
        },
        {
          "internalType": "bool",
          "name": "approved",
          "type": "bool"
        }
      ],
      "name": "setApprovalForAll",
      "outputs": [],
      "stateMutability": "nonpayable",
      "type": "function"
    },
    {
      "inputs": [
        {
          "internalType": "string",
          "name": "_url",
          "type": "string"
        }
      ],
      "name": "setContractUri",
      "outputs": [],
      "stateMutability": "nonpayable",
      "type": "function"
    },
    {
      "inputs": [
        {
          "internalType": "address",
          "name": "_receiver",
          "type": "address"
        },
        {
          "internalType": "uint96",
          "name": "_feeNumerator",
          "type": "uint96"
        }
      ],
      "name": "setDefaultRoyalty",
      "outputs": [],
      "stateMutability": "nonpayable",
      "type": "function"
    },
    {
      "inputs": [
        {
          "internalType": "address",
          "name": "_mysteryCardsManager",
          "type": "address"
        }
      ],
      "name": "setMysteryCardsManager",
      "outputs": [],
      "stateMutability": "nonpayable",
      "type": "function"
    },
    {
      "inputs": [
        {
          "internalType": "address",
          "name": "_signer",
          "type": "address"
        }
      ],
      "name": "setSigner",
      "outputs": [],
      "stateMutability": "nonpayable",
      "type": "function"
    },
    {
      "inputs": [
        {
          "internalType": "string",
          "name": "_url",
          "type": "string"
        }
      ],
      "name": "setUri",
      "outputs": [],
      "stateMutability": "nonpayable",
      "type": "function"
    },
    {
      "inputs": [],
      "name": "signer",
      "outputs": [
        {
          "internalType": "address",
          "name": "",
          "type": "address"
        }
      ],
      "stateMutability": "view",
      "type": "function"
    },
    {
      "inputs": [
        {
          "internalType": "bytes4",
          "name": "interfaceId",
          "type": "bytes4"
        }
      ],
      "name": "supportsInterface",
      "outputs": [
        {
          "internalType": "bool",
          "name": "",
          "type": "bool"
        }
      ],
      "stateMutability": "view",
      "type": "function"
    },
    {
      "inputs": [],
      "name": "totalNft",
      "outputs": [
        {
          "internalType": "uint256",
          "name": "",
          "type": "uint256"
        }
      ],
      "stateMutability": "view",
      "type": "function"
    },
    {
      "inputs": [
        {
          "internalType": "uint256",
          "name": "",
          "type": "uint256"
        }
      ],
      "name": "totalSupply",
      "outputs": [
        {
          "internalType": "uint256",
          "name": "",
          "type": "uint256"
        }
      ],
      "stateMutability": "view",
      "type": "function"
    },
    {
      "inputs": [
        {
          "internalType": "address",
          "name": "newOwner",
          "type": "address"
        }
      ],
      "name": "transferOwnership",
      "outputs": [],
      "stateMutability": "nonpayable",
      "type": "function"
    },
    {
      "inputs": [
        {
          "internalType": "uint256",
          "name": "id",
          "type": "uint256"
        }
      ],
      "name": "uri",
      "outputs": [
        {
          "internalType": "string",
          "name": "",
          "type": "string"
        }
      ],
      "stateMutability": "view",
      "type": "function"
    },
    {
      "inputs": [],
      "name": "wlActive",
      "outputs": [
        {
          "internalType": "bool",
          "name": "",
          "type": "bool"
        }
      ],
      "stateMutability": "view",
      "type": "function"
    }
  ],
  "bytecode": "0x608060405234801561001057600080fd5b50613151806100206000396000f3fe608060405234801561001057600080fd5b50600436106102105760003560e01c80636c19e78311610125578063b390c0ab116100ad578063ccb4807b1161007c578063ccb4807b146104bb578063e8a3d485146104ce578063e985e9c5146104d6578063f242432a14610512578063f2fde38b1461052557600080fd5b8063b390c0ab14610462578063bd85b03914610475578063bf1b28dc14610495578063c8d17b46146104a857600080fd5b80638129fc1c116100f45780638129fc1c146104105780638da5cb5b146104185780639b642de114610429578063a22cb4651461043c578063a57a4f6a1461044f57600080fd5b80636c19e783146103d85780636fdaddf1146103eb578063715018a6146103f45780637730bb7c146103fc57600080fd5b80632a55205a116101a857806348575bfa1161017757806348575bfa14610386578063490c06c1146103935780634e1273f41461039c57806357092011146103bc578063660af191146103cf57600080fd5b80632a55205a1461030d5780632eb2c2d61461033f578063381d6936146103525780633e8a600d1461037357600080fd5b80630e89341c116101e45780630e89341c146102b45780631b24b4d9146102c7578063238ac933146102cf5780632743a850146102fa57600080fd5b8062fdd58e1461021557806301ffc9a71461023b57806304634d8d1461025e57806306fdde0314610273575b600080fd5b61022861022336600461255f565b610538565b6040519081526020015b60405180910390f35b61024e61024936600461259f565b6105d0565b6040519015158152602001610232565b61027161026c3660046125c3565b6105f0565b005b6102a76040518060400160405280601581526020017452656b74536b756c6c73202d20457373656e63657360581b81525081565b6040516102329190612662565b6102a76102c2366004612675565b610606565b610271610641565b60fb546102e2906001600160a01b031681565b6040516001600160a01b039091168152602001610232565b610271610308366004612766565b610691565b61032061031b3660046127da565b61074b565b604080516001600160a01b039093168352602083019190915201610232565b61027161034d36600461287a565b6107f9565b610228610360366004612924565b6101006020526000908152604090205481565b61027161038136600461294f565b610845565b60fd5461024e9060ff1681565b61022860fc5481565b6103af6103aa36600461296a565b610860565b6040516102329190612a70565b6102716103ca366004612a83565b61098a565b6102286103e881565b6102716103e6366004612924565b610bab565b61022861271081565b610271610bd5565b610101546102e2906001600160a01b031681565b610271610be7565b6097546001600160a01b03166102e2565b610271610437366004612ac9565b610d24565b61027161044a366004612b1a565b610d35565b61027161045d36600461255f565b610d40565b6102716104703660046127da565b610d77565b610228610483366004612675565b60ff6020526000908152604090205481565b6102716104a336600461255f565b610e45565b6102716104b6366004612924565b610f2e565b6102716104c9366004612ac9565b610f59565b6102a7610f74565b61024e6104e4366004612b4d565b6001600160a01b03918216600090815260666020908152604080832093909416825291909152205460ff1690565b610271610520366004612b77565b611006565b610271610533366004612924565b61104b565b60006001600160a01b0383166105a85760405162461bcd60e51b815260206004820152602a60248201527f455243313135353a2061646472657373207a65726f206973206e6f742061207660448201526930b634b21037bbb732b960b11b60648201526084015b60405180910390fd5b5060009081526065602090815260408083206001600160a01b03949094168352929052205490565b60006105db826110c1565b806105ea57506105ea82611111565b92915050565b6105f8611136565b6106028282611190565b5050565b60606106118261128d565b61061a83611321565b60405160200161062b929190612bdc565b6040516020818303038152906040529050919050565b610649611136565b60fc54156106835760405162461bcd60e51b81526020600482015260076024820152662a2a2624a9a72d60c91b604482015260640161059f565b61068f336001806113b6565b565b610101546001600160a01b031633146106bc5760405162461bcd60e51b815260040161059f90612c0b565b60005b825181101561073a5760018382815181106106dc576106dc612c29565b60200260200101511015801561070c5750600483828151811061070157610701612c29565b602002602001015111155b6107285760405162461bcd60e51b815260040161059f90612c3f565b8061073281612c74565b9150506106bf565b50610746838383611494565b505050565b600082815260ca602090815260408083208151808301909252546001600160a01b038116808352600160a01b9091046001600160601b03169282019290925282916107c057506040805180820190915260c9546001600160a01b0381168252600160a01b90046001600160601b031660208201525b6020810151600090612710906107df906001600160601b031687612c8f565b6107e99190612cae565b91519350909150505b9250929050565b6001600160a01b038516331480610815575061081585336104e4565b6108315760405162461bcd60e51b815260040161059f90612cd0565b61083e8585858585611678565b5050505050565b61084d611136565b60fd805460ff1916911515919091179055565b606081518351146108c55760405162461bcd60e51b815260206004820152602960248201527f455243313135353a206163636f756e747320616e6420696473206c656e677468604482015268040dad2e6dac2e8c6d60bb1b606482015260840161059f565b6000835167ffffffffffffffff8111156108e1576108e161268e565b60405190808252806020026020018201604052801561090a578160200160208202803683370190505b50905060005b84518110156109825761095585828151811061092e5761092e612c29565b602002602001015185838151811061094857610948612c29565b6020026020010151610538565b82828151811061096757610967612c29565b602090810291909101015261097b81612c74565b9050610910565b509392505050565b826001811015801561099d575060048111155b6109b95760405162461bcd60e51b815260040161059f90612c3f565b3360009081526101006020526040902054839081906109d9906001612d1e565b14610a0f5760405162461bcd60e51b815260040161059f906020808252600490820152634e49534360e01b604082015260600190565b60fd5460ff16610a4b5760405162461bcd60e51b81526020600482015260076024820152662ba6272a29aa2960c91b604482015260640161059f565b6103e860fc546001610a5d9190612d1e565b1115610a7b5760405162461bcd60e51b815260040161059f90612d36565b6000610b18868633604051602001610ab893929190928352602083019190915260601b6bffffffffffffffffffffffff1916604082015260540190565b60408051601f1981840301815282825280516020918201207f19457468657265756d205369676e6564204d6573736167653a0a33320000000084830152603c8085019190915282518085039091018152605c909301909152815191012090565b60fb549091506001600160a01b0316610b318286611817565b6001600160a01b031614610b765760405162461bcd60e51b815260206004820152600c60248201526b24a72b20a624a21029a4a3a760a11b604482015260640161059f565b610b82338760016113b6565b5033600090815261010060205260408120805491610b9f83612c74565b91905055505050505050565b610bb3611136565b60fb80546001600160a01b0319166001600160a01b0392909216919091179055565b610bdd611136565b61068f6000611833565b600054610100900460ff1615808015610c075750600054600160ff909116105b80610c215750303b158015610c21575060005460ff166001145b610c845760405162461bcd60e51b815260206004820152602e60248201527f496e697469616c697a61626c653a20636f6e747261637420697320616c72656160448201526d191e481a5b9a5d1a585b1a5e995960921b606482015260840161059f565b6000805460ff191660011790558015610ca7576000805461ff0019166101001790555b610cbf60405180602001604052806000815250611885565b610cc76118b5565b610ccf6118e4565b610cdb336101f4611190565b8015610d21576000805461ff0019169055604051600181527f7f26b83ff96e1f2b6a682f133852f6798a09c465da95921460cefb38474024989060200160405180910390a15b50565b610d2c611136565b610d218161190b565b61060233838361191e565b610101546001600160a01b03163314610d6b5760405162461bcd60e51b815260040161059f90612c0b565b610602826005836113b6565b8160018110158015610d8a575060048111155b610da65760405162461bcd60e51b815260040161059f90612c3f565b81610dc35760405162461bcd60e51b815260040161059f90612d56565b610dce3384846119f7565b8160fc6000828254610de09190612d74565b9091555050600083815260ff602052604081208054849290610e03908490612d74565b9091555050604051828152839033907f49995e5dd6158cf69ad3e9777c46755a1a826a446c6416992167462dad033b2a906020015b60405180910390a3505050565b610101546001600160a01b03163314610e705760405162461bcd60e51b815260040161059f90612c0b565b80610e8d5760405162461bcd60e51b815260040161059f90612d56565b610e99826005836119f7565b8060fc6000828254610eab9190612d74565b90915550506005600090815260ff6020527f80f0bf4638c668ddc66ffc002fb2c1298c970274789cbef4c7180b76efa8a4a38054839290610eed908490612d74565b909155505060405181815260059033907f49995e5dd6158cf69ad3e9777c46755a1a826a446c6416992167462dad033b2a9060200160405180910390a35050565b610f36611136565b61010180546001600160a01b0319166001600160a01b0392909216919091179055565b610f61611136565b80516106029060fe9060208401906124aa565b606060fe8054610f8390612d8b565b80601f0160208091040260200160405190810160405280929190818152602001828054610faf90612d8b565b8015610ffc5780601f10610fd157610100808354040283529160200191610ffc565b820191906000526020600020905b815481529060010190602001808311610fdf57829003601f168201915b5050505050905090565b6001600160a01b038516331480611022575061102285336104e4565b61103e5760405162461bcd60e51b815260040161059f90612cd0565b61083e8585858585611b7b565b611053611136565b6001600160a01b0381166110b85760405162461bcd60e51b815260206004820152602660248201527f4f776e61626c653a206e6577206f776e657220697320746865207a65726f206160448201526564647265737360d01b606482015260840161059f565b610d2181611833565b60006001600160e01b03198216636cdb3d1360e11b14806110f257506001600160e01b031982166303a24d0760e21b145b806105ea57506301ffc9a760e01b6001600160e01b03198316146105ea565b60006001600160e01b0319821663152a902d60e11b14806105ea57506105ea826110c1565b6097546001600160a01b0316331461068f5760405162461bcd60e51b815260206004820181905260248201527f4f776e61626c653a2063616c6c6572206973206e6f7420746865206f776e6572604482015260640161059f565b6127106001600160601b03821611156111fe5760405162461bcd60e51b815260206004820152602a60248201527f455243323938313a20726f79616c7479206665652077696c6c206578636565646044820152692073616c65507269636560b01b606482015260840161059f565b6001600160a01b0382166112545760405162461bcd60e51b815260206004820152601960248201527f455243323938313a20696e76616c696420726563656976657200000000000000604482015260640161059f565b604080518082019091526001600160a01b039092168083526001600160601b039091166020909201829052600160a01b9091021760c955565b60606067805461129c90612d8b565b80601f01602080910402602001604051908101604052809291908181526020018280546112c890612d8b565b80156113155780601f106112ea57610100808354040283529160200191611315565b820191906000526020600020905b8154815290600101906020018083116112f857829003601f168201915b50505050509050919050565b6060600061132e83611ca9565b600101905060008167ffffffffffffffff81111561134e5761134e61268e565b6040519080825280601f01601f191660200182016040528015611378576020820181803683370190505b5090508181016020015b600019016f181899199a1a9b1b9c1cb0b131b232b360811b600a86061a8153600a85049450846113b157610982565b611382565b806113d35760405162461bcd60e51b815260040161059f90612d56565b6127108160fc546113e49190612d1e565b11156114025760405162461bcd60e51b815260040161059f90612d36565b61141d83838360405180602001604052806000815250611d81565b8060fc600082825461142f9190612d1e565b9091555050600082815260ff602052604081208054839290611452908490612d1e565b909155505060405181815282906001600160a01b038516907f4c209b5fc8ad50758f13e2e1088ba56a560dff690a1c6fef26394f4c03821c4f90602001610e38565b60008251116114d15760405162461bcd60e51b8152602060048201526009602482015268262723a429a1212a2d60b91b604482015260640161059f565b805182511461150c5760405162461bcd60e51b81526020600482015260076024820152664c4e474841545360c81b604482015260640161059f565b6000805b83518110156115ae5782818151811061152b5761152b612c29565b602002602001015160ff600086848151811061154957611549612c29565b60200260200101518152602001908152602001600020600082825461156e9190612d1e565b9250508190555082818151811061158757611587612c29565b60200260200101518261159a9190612d1e565b9150806115a681612c74565b915050611510565b50806115cc5760405162461bcd60e51b815260040161059f90612d56565b6127108160fc546115dd9190612d1e565b11156115fb5760405162461bcd60e51b815260040161059f90612d36565b61161684848460405180602001604052806000815250611e54565b8060fc60008282546116289190612d1e565b92505081905550836001600160a01b03167f7744fed36cc2f077e8639e4f0ede59b6ade28587835e9d5d97a21e186f284796848460405161166a929190612dc6565b60405180910390a250505050565b81518351146116995760405162461bcd60e51b815260040161059f90612df4565b6001600160a01b0384166116bf5760405162461bcd60e51b815260040161059f90612e3c565b3360005b84518110156117a95760008582815181106116e0576116e0612c29565b6020026020010151905060008583815181106116fe576116fe612c29565b60209081029190910181015160008481526065835260408082206001600160a01b038e16835290935291909120549091508181101561174f5760405162461bcd60e51b815260040161059f90612e81565b60008381526065602090815260408083206001600160a01b038e8116855292528083208585039055908b1682528120805484929061178e908490612d1e565b92505081905550505050806117a290612c74565b90506116c3565b50846001600160a01b0316866001600160a01b0316826001600160a01b03167f4a39dc06d4c0dbc64b70af90fd698a233a518aa5d07e595d983b8c0526c8f7fb87876040516117f9929190612dc6565b60405180910390a461180f818787878787611f9c565b505050505050565b600080600061182685856120f8565b915091506109828161213b565b609780546001600160a01b038381166001600160a01b0319831681179093556040519116919082907f8be0079c531659141344cd1fd0a4f28419497f9722a3daafe3b4186f6b6457e090600090a35050565b600054610100900460ff166118ac5760405162461bcd60e51b815260040161059f90612ecb565b610d2181612289565b600054610100900460ff166118dc5760405162461bcd60e51b815260040161059f90612ecb565b61068f6122b0565b600054610100900460ff1661068f5760405162461bcd60e51b815260040161059f90612ecb565b80516106029060679060208401906124aa565b816001600160a01b0316836001600160a01b031614156119925760405162461bcd60e51b815260206004820152602960248201527f455243313135353a2073657474696e6720617070726f76616c20737461747573604482015268103337b91039b2b63360b91b606482015260840161059f565b6001600160a01b03838116600081815260666020908152604080832094871680845294825291829020805460ff191686151590811790915591519182527f17307eab39ab6107e8899845ad3d59bd9653f200f220920489ca2b5937696c319101610e38565b6001600160a01b038316611a595760405162461bcd60e51b815260206004820152602360248201527f455243313135353a206275726e2066726f6d20746865207a65726f206164647260448201526265737360e81b606482015260840161059f565b336000611a65846122e0565b90506000611a72846122e0565b6040805160208082018352600091829052888252606581528282206001600160a01b038b1683529052205490915084811015611afc5760405162461bcd60e51b8152602060048201526024808201527f455243313135353a206275726e20616d6f756e7420657863656564732062616c604482015263616e636560e01b606482015260840161059f565b60008681526065602090815260408083206001600160a01b038b81168086529184528285208a8703905582518b81529384018a90529092908816917fc3d58168c5ae7397731d063d5bbf3d657854427343f4c083240f7aacaa2d0f62910160405180910390a46040805160208101909152600090525b50505050505050565b6001600160a01b038416611ba15760405162461bcd60e51b815260040161059f90612e3c565b336000611bad856122e0565b90506000611bba856122e0565b905060008681526065602090815260408083206001600160a01b038c16845290915290205485811015611bff5760405162461bcd60e51b815260040161059f90612e81565b60008781526065602090815260408083206001600160a01b038d8116855292528083208985039055908a16825281208054889290611c3e908490612d1e565b909155505060408051888152602081018890526001600160a01b03808b16928c821692918816917fc3d58168c5ae7397731d063d5bbf3d657854427343f4c083240f7aacaa2d0f62910160405180910390a4611c9e848a8a8a8a8a61232b565b505050505050505050565b60008072184f03e93ff9f4daa797ed6e38ed64bf6a1f0160401b8310611ce85772184f03e93ff9f4daa797ed6e38ed64bf6a1f0160401b830492506040015b6d04ee2d6d415b85acef81000000008310611d14576d04ee2d6d415b85acef8100000000830492506020015b662386f26fc100008310611d3257662386f26fc10000830492506010015b6305f5e1008310611d4a576305f5e100830492506008015b6127108310611d5e57612710830492506004015b60648310611d70576064830492506002015b600a83106105ea5760010192915050565b6001600160a01b038416611da75760405162461bcd60e51b815260040161059f90612f16565b336000611db3856122e0565b90506000611dc0856122e0565b905060008681526065602090815260408083206001600160a01b038b16845290915281208054879290611df4908490612d1e565b909155505060408051878152602081018790526001600160a01b03808a1692600092918716917fc3d58168c5ae7397731d063d5bbf3d657854427343f4c083240f7aacaa2d0f62910160405180910390a4611b728360008989898961232b565b6001600160a01b038416611e7a5760405162461bcd60e51b815260040161059f90612f16565b8151835114611e9b5760405162461bcd60e51b815260040161059f90612df4565b3360005b8451811015611f3857838181518110611eba57611eba612c29565b602002602001015160656000878481518110611ed857611ed8612c29565b602002602001015181526020019081526020016000206000886001600160a01b03166001600160a01b031681526020019081526020016000206000828254611f209190612d1e565b90915550819050611f3081612c74565b915050611e9f565b50846001600160a01b031660006001600160a01b0316826001600160a01b03167f4a39dc06d4c0dbc64b70af90fd698a233a518aa5d07e595d983b8c0526c8f7fb8787604051611f89929190612dc6565b60405180910390a461083e816000878787875b6001600160a01b0384163b1561180f5760405163bc197c8160e01b81526001600160a01b0385169063bc197c8190611fe09089908990889088908890600401612f57565b6020604051808303816000875af192505050801561201b575060408051601f3d908101601f1916820190925261201891810190612fb5565b60015b6120c857612027612fd2565b806308c379a01415612061575061203c612fee565b806120475750612063565b8060405162461bcd60e51b815260040161059f9190612662565b505b60405162461bcd60e51b815260206004820152603460248201527f455243313135353a207472616e7366657220746f206e6f6e2d455243313135356044820152732932b1b2b4bb32b91034b6b83632b6b2b73a32b960611b606482015260840161059f565b6001600160e01b0319811663bc197c8160e01b14611b725760405162461bcd60e51b815260040161059f90613078565b60008082516041141561212f5760208301516040840151606085015160001a612123878285856123e6565b945094505050506107f2565b506000905060026107f2565b600081600481111561214f5761214f6130c0565b14156121585750565b600181600481111561216c5761216c6130c0565b14156121ba5760405162461bcd60e51b815260206004820152601860248201527f45434453413a20696e76616c6964207369676e61747572650000000000000000604482015260640161059f565b60028160048111156121ce576121ce6130c0565b141561221c5760405162461bcd60e51b815260206004820152601f60248201527f45434453413a20696e76616c6964207369676e6174757265206c656e67746800604482015260640161059f565b6003816004811115612230576122306130c0565b1415610d215760405162461bcd60e51b815260206004820152602260248201527f45434453413a20696e76616c6964207369676e6174757265202773272076616c604482015261756560f01b606482015260840161059f565b600054610100900460ff16610d2c5760405162461bcd60e51b815260040161059f90612ecb565b600054610100900460ff166122d75760405162461bcd60e51b815260040161059f90612ecb565b61068f33611833565b6040805160018082528183019092526060916000919060208083019080368337019050509050828160008151811061231a5761231a612c29565b602090810291909101015292915050565b6001600160a01b0384163b1561180f5760405163f23a6e6160e01b81526001600160a01b0385169063f23a6e619061236f90899089908890889088906004016130d6565b6020604051808303816000875af19250505080156123aa575060408051601f3d908101601f191682019092526123a791810190612fb5565b60015b6123b657612027612fd2565b6001600160e01b0319811663f23a6e6160e01b14611b725760405162461bcd60e51b815260040161059f90613078565b6000807f7fffffffffffffffffffffffffffffff5d576e7357a4501ddfe92f46681b20a083111561241d57506000905060036124a1565b6040805160008082526020820180845289905260ff881692820192909252606081018690526080810185905260019060a0016020604051602081039080840390855afa158015612471573d6000803e3d6000fd5b5050604051601f1901519150506001600160a01b03811661249a576000600192509250506124a1565b9150600090505b94509492505050565b8280546124b690612d8b565b90600052602060002090601f0160209004810192826124d8576000855561251e565b82601f106124f157805160ff191683800117855561251e565b8280016001018555821561251e579182015b8281111561251e578251825591602001919060010190612503565b5061252a92915061252e565b5090565b5b8082111561252a576000815560010161252f565b80356001600160a01b038116811461255a57600080fd5b919050565b6000806040838503121561257257600080fd5b61257b83612543565b946020939093013593505050565b6001600160e01b031981168114610d2157600080fd5b6000602082840312156125b157600080fd5b81356125bc81612589565b9392505050565b600080604083850312156125d657600080fd5b6125df83612543565b915060208301356001600160601b03811681146125fb57600080fd5b809150509250929050565b60005b83811015612621578181015183820152602001612609565b83811115612630576000848401525b50505050565b6000815180845261264e816020860160208601612606565b601f01601f19169290920160200192915050565b6020815260006125bc6020830184612636565b60006020828403121561268757600080fd5b5035919050565b634e487b7160e01b600052604160045260246000fd5b601f8201601f1916810167ffffffffffffffff811182821017156126ca576126ca61268e565b6040525050565b600067ffffffffffffffff8211156126eb576126eb61268e565b5060051b60200190565b600082601f83011261270657600080fd5b81356020612713826126d1565b60405161272082826126a4565b83815260059390931b850182019282810191508684111561274057600080fd5b8286015b8481101561275b5780358352918301918301612744565b509695505050505050565b60008060006060848603121561277b57600080fd5b61278484612543565b9250602084013567ffffffffffffffff808211156127a157600080fd5b6127ad878388016126f5565b935060408601359150808211156127c357600080fd5b506127d0868287016126f5565b9150509250925092565b600080604083850312156127ed57600080fd5b50508035926020909101359150565b600067ffffffffffffffff8311156128165761281661268e565b60405161282d601f8501601f1916602001826126a4565b80915083815284848401111561284257600080fd5b83836020830137600060208583010152509392505050565b600082601f83011261286b57600080fd5b6125bc838335602085016127fc565b600080600080600060a0868803121561289257600080fd5b61289b86612543565b94506128a960208701612543565b9350604086013567ffffffffffffffff808211156128c657600080fd5b6128d289838a016126f5565b945060608801359150808211156128e857600080fd5b6128f489838a016126f5565b9350608088013591508082111561290a57600080fd5b506129178882890161285a565b9150509295509295909350565b60006020828403121561293657600080fd5b6125bc82612543565b8035801515811461255a57600080fd5b60006020828403121561296157600080fd5b6125bc8261293f565b6000806040838503121561297d57600080fd5b823567ffffffffffffffff8082111561299557600080fd5b818501915085601f8301126129a957600080fd5b813560206129b6826126d1565b6040516129c382826126a4565b83815260059390931b85018201928281019150898411156129e357600080fd5b948201945b83861015612a08576129f986612543565b825294820194908201906129e8565b96505086013592505080821115612a1e57600080fd5b50612a2b858286016126f5565b9150509250929050565b600081518084526020808501945080840160005b83811015612a6557815187529582019590820190600101612a49565b509495945050505050565b6020815260006125bc6020830184612a35565b600080600060608486031215612a9857600080fd5b8335925060208401359150604084013567ffffffffffffffff811115612abd57600080fd5b6127d08682870161285a565b600060208284031215612adb57600080fd5b813567ffffffffffffffff811115612af257600080fd5b8201601f81018413612b0357600080fd5b612b12848235602084016127fc565b949350505050565b60008060408385031215612b2d57600080fd5b612b3683612543565b9150612b446020840161293f565b90509250929050565b60008060408385031215612b6057600080fd5b612b6983612543565b9150612b4460208401612543565b600080600080600060a08688031215612b8f57600080fd5b612b9886612543565b9450612ba660208701612543565b93506040860135925060608601359150608086013567ffffffffffffffff811115612bd057600080fd5b6129178882890161285a565b60008351612bee818460208801612606565b835190830190612c02818360208801612606565b01949350505050565b6020808252600490820152634e4d434d60e01b604082015260600190565b634e487b7160e01b600052603260045260246000fd5b602080825260059082015264125390d25160da1b604082015260600190565b634e487b7160e01b600052601160045260246000fd5b6000600019821415612c8857612c88612c5e565b5060010190565b6000816000190483118215151615612ca957612ca9612c5e565b500290565b600082612ccb57634e487b7160e01b600052601260045260246000fd5b500490565b6020808252602e908201527f455243313135353a2063616c6c6572206973206e6f7420746f6b656e206f776e60408201526d195c881bdc88185c1c1c9bdd995960921b606082015260800190565b60008219821115612d3157612d31612c5e565b500190565b60208082526006908201526553555045584360d01b604082015260600190565b60208082526004908201526320a6a4ad60e11b604082015260600190565b600082821015612d8657612d86612c5e565b500390565b600181811c90821680612d9f57607f821691505b60208210811415612dc057634e487b7160e01b600052602260045260246000fd5b50919050565b604081526000612dd96040830185612a35565b8281036020840152612deb8185612a35565b95945050505050565b60208082526028908201527f455243313135353a2069647320616e6420616d6f756e7473206c656e677468206040820152670dad2e6dac2e8c6d60c31b606082015260800190565b60208082526025908201527f455243313135353a207472616e7366657220746f20746865207a65726f206164604082015264647265737360d81b606082015260800190565b6020808252602a908201527f455243313135353a20696e73756666696369656e742062616c616e636520666f60408201526939103a3930b739b332b960b11b606082015260800190565b6020808252602b908201527f496e697469616c697a61626c653a20636f6e7472616374206973206e6f74206960408201526a6e697469616c697a696e6760a81b606082015260800190565b60208082526021908201527f455243313135353a206d696e7420746f20746865207a65726f206164647265736040820152607360f81b606082015260800190565b6001600160a01b0386811682528516602082015260a060408201819052600090612f8390830186612a35565b8281036060840152612f958186612a35565b90508281036080840152612fa98185612636565b98975050505050505050565b600060208284031215612fc757600080fd5b81516125bc81612589565b600060033d1115612feb5760046000803e5060005160e01c5b90565b600060443d1015612ffc5790565b6040516003193d81016004833e81513d67ffffffffffffffff816024840111818411171561302c57505050505090565b82850191508151818111156130445750505050505090565b843d870101602082850101111561305e5750505050505090565b61306d602082860101876126a4565b509095945050505050565b60208082526028908201527f455243313135353a204552433131353552656365697665722072656a656374656040820152676420746f6b656e7360c01b606082015260800190565b634e487b7160e01b600052602160045260246000fd5b6001600160a01b03868116825285166020820152604081018490526060810183905260a06080820181905260009061311090830184612636565b97965050505050505056fea2646970667358221220e0eb109c92aa637db0bb55237d1b498136e68444baa58ca93099c49a4b82e6b564736f6c634300080c0033",
  "linkReferences": {},
  "deployedLinkReferences": {}
}